:100000001AC03EC03DC03CC0E2C03AC039C038C092
:1000100037C036C035C003C128C132C0A8C030C007
:100020002FC02EC074C12CC02BC02AC029C028C02C
:1000300027C026C0650211241FBECFEFD4E0DEBF6B
:10004000CDBF11E0A0E0B1E0E0E7F5E002C005902F
:100050000D92AA33B107D9F721E0AAE3B1E001C0BC
:100060001D92A235B207E1F710E0CBE1D0E003C06A
:100070002197FE0175D2CA31D107D1F7EED176C2F0
:10008000BFCF62E081E23BC1CF9380913C018130E0
:10009000E1F018F08230D1F159C010923B0180910B
:1000A0004801882309F452C010924801C0915101BF
:1000B000C13039F0C23009F049C061E08AEF1FD188
:1000C00045C061E08EE11BD11EC00DD166E015D2A6
:1000D0009F5F90933B01809148018823B9F1109272
:1000E0004801C0915101C13041F0C23079F5FBD0D7
:1000F0008F708C5F80933A0106C061E08AEFFFD079
:1001000010923C0123C0C0933C0120C020913A01D1
:10011000215020933A0180913B0190E0019666E0E6
:1001200070E0F7D18F5F80933B0120FF03C061E057
:1001300084E1E5D080913A01811108C061E086E157
:10014000DED08FE0C7D081E080933C01E0913B019D
:1001500088E0E89FF0011124EF5FFE4F88E0A9E4FA
:10016000B1E001900D928A95E1F7CF9108951F9229
:100170000F920FB60F9211248F939F93EF93FF93DB
:1001800015B880910001880F811D809300019BB1FB
:100190009F70807F892B8BB988B1909100019F70EF
:1001A000807F892B88B9E0913D01EF5FE770E09394
:1001B0003D01F0E0E75BFE4F808185B9FF91EF9153
:1001C0009F918F910F900FBE0F901F9018951F92C7
:1001D0000F920FB60F9211248F939F93EF93FF937B
:1001E00080918400909185008C509E4F909389005F
:1001F0008093880082E086BBEFE6F0E08081826039
:10020000808380913E018F5F80933E01FF91EF914B
:100210009F918F910F900FBE0F901F9018951F9276
:100220000F920FB60F9211248F939F93EF93FF932A
:1002300086B190E080959095E4E095958795EA9554
:10024000E1F783708093510181E080934801EFE6EC
:10025000F0E080818D7F8083FF91EF919F918F915E
:100260000F900FBE0F901F9018951F920F920FB610
:100270000F9211248F939F93809184009091850019
:10028000845F9C4F90938B0080938A0084E086BBB0
:1002900080913F01882329F080913F018150809314
:1002A0003F0180914101882359F0809141018150A3
:1002B0008093410180914101811102C01092B000F0
:1002C00081E0809340019F918F910F900FBE0F901E
:1002D0001F90189580933F0180913F01882311F072
:1002E000A895FACF089580913E018F5F80933E01DB
:1002F00080913E0190913E01880F89270895809357
:10030000B3006093410182E18093B00008951F9291
:100310000F920FB60F9211242F938F939F93EF9309
:10032000FF9380914701813059F020F0823009F429
:100330004CC089C08091C6008093460181E042C0D4
:10034000E091C600F0E0F0934501E0934401809114
:100350004601811136C0E438F10571F0EA38F10543
:1003600081F0E838F10591F0E837F10521F5809149
:100370007800909179000EC0809184009091850062
:1003800009C080918A0090918B0004C08091880000
:1003900090918900909343018093420180914201A2
:1003A0008093C6008091C00085FD02C0A895FACF59
:1003B0008091430101C080818093C6001092470163
:1003C00042C082E0809347013EC0E0914401F09139
:1003D0004501E438F10529F0CF018D7F883891057A
:1003E00071F58091C60090E0982F88279093430183
:1003F000809342012091C00027FD02C0A895FACF4A
:100400002091C600822B9093430180934201E438EF
:10041000F10529F49093850080938400CFCFEA38CA
:10042000F10529F490938B0080938A00C7CFE838B8
:10043000F10521F69093890080938800BFCF8091C9
:10044000C6008083BBCFFF91EF919F918F912F9139
:100450000F900FBE0F901F9018958FEF84B98FE00B
:1004600087B98AEF8AB990E398B91BB889EF87BD3D
:1004700022E024BD83E085BD80916E008260809380
:100480006E001092B00084E48093B100109280005E
:1004900085E08093810080916F00846080936F007D
:1004A0004FEF5FEF509385004093840020936800E6
:1004B00090936C00E6DD789410924001A8958091AD
:1004C00040018823D9F3E0DDF7CF86E08093C200B6
:1004D0008CE090E09093C5008093C400E1ECF0E0E4
:1004E0008081806880838081886080838081806152
:1004F000808378940895A895FECF991B79E004C075
:10050000991F961708F0961B881F7A95C9F7809552
:10051000089597FB072E16F4009406D077FD08D0B7
:100520000BD007FC05D03EF4909581959F4F089520
:10053000709561957F4F0895AA1BBB1B51E107C0C1
:10054000AA1FBB1FA617B70710F0A61BB70B881F63
:10055000991F5A95A9F780959095BC01CD010895F2
:10056000EE0FFF1F0590F491E02D0994F894FFCF52
:10057000FEE49494E0066F886600000018180000FE
:1005800000000C0C00003030000606001818006057
:100590006000666600006666006666001818006601
:0A05A0006666660066660066660087
:00000001FF
